:100000000C94CA050C94E7050C94E7050C94E705DD
:100010000C94422D0C94E7050C94E7050C94E7052D
:100020000C94E7050C94E7050C9424160C94431AE1
:100030000C948B250C94E7050C94E7050C94E705CC
:100040000C94E7050C94E7050C94E7050C94E70580
:100050000C94E7050C94FD160C94E7050C94E70549
:100060000C94E7050C94E7050C94E7050C94E70560
:100070000C94E7050C94E7050C94E7050C94E70550
:100080000C94E7050C94E7050C94E7050C94E70540
:100090000C94E7050C94E7050C94E7050C94E70530
:1000A0000C94E7050C94E7050C94E70514001A007E
:1000B00009001300050004081524160117220A0080
:1000C0001D001B0006000700190000000000294366
:1000D0002B422C4134001C0018000F000D00121898
:1000E0000C340831113210003800370036000B0094
:1000F0000E00000000004C462A45284429002B0031
:1001000053002F003000E300E000E200E100310086
:1001100000000000000000002C00000000000000B3
:1001200000000000270026002500240038002D00D4
:1001300023002200210033002E0020001F001E009B
:100140002A000000000034002700580029002B007E
:10015000000036023702E300E200E000E100340272
:100160003900000000000000330200000000000021
:10017000000000002702260225022402230230028A
:100180002F02220221022D02310220021F021E0232
:100190003502000000004C002A00280029002B0036
:1001A000000000000000E300E200E000E1000000C9
:1001B000000000000000000000000000000000003F
:1001C00000002C0043004200410040004600440073
:1001D0003F003E003D00470045003C003B003A0028
:1001E0004800000000004C002A00280029004D00B3
:1001F00052004A004B007900500051004F004E0061
:100200007A007B007C007D00490000000000650052
:100210002B002C0000000000000000000000E700A0
:10022000E600E400E500000000000000000000001F
:100230000000000000004C002A000000D400DB0099
:10024000CD00DC00D900D500CF00CE00D000DA0010
:100250007700B600B900B700B80000000000D30076
:10026000D200D10000000000000000000000E70004
:10027000E600E400E50000000000000000000000CF
:10028000000000000000000000000000287827782F
:10029000227821782078BC00A800AA00A900BB0021
:1002A00024782378267825782D7800000000000037
:1002B000AD00AE00000000000000000000000000E3
:1002C000000000000000000000000000000000002E
:1002D00000000000000000000000000000DA0281C1
:1002E000FFD9F1DB20A4A62EAF00A0C000A1C8005A
:1002F000AED580A81FD300408D1420004C617965D5
:10030000723A204F746865720A0020202020202055
:1003100020205E0A00422052204C2041204F004CF9
:10032000617965723A2041646A7573740A0020200D
:10033000202020205E0A00422052204C2041204FE5
:100340000A004C617965723A204C6F7765720A0039
:10035000202020205E0A00422052204C2041204FC5
:100360000A004C617965723A2052616973650A002E
:1003700020205E0A00422052204C2041204F0A00DB
:100380004C617965723A20426173650A005E0A0029
:10039000422052204C2041204F0A008081828384D9
:1003A00085868788898A8B8C8D8E8F909192939485
:1003B000A0A1A2A3A4A5A6A7A8A9AAABACADAEAFC5
:1003C000B0B1B2B3B4C0C1C2C3C4C5C6C7C8C9CA3C
:1003D000CBCCCDCECFD0D1D2D3D4000001010101FE
:1003E00001010101010202020202020202020303F0
:1003F00003030303030304040404040404050505C0
:100400000505060606060607070707070808080881
:10041000090909090A0A0A0B0B0B0C0C0C0D0D0D2E
:100420000E0E0E0F0F0F10101111111212131314C4
:1004300014151516161717181819191A1A1B1B1C3C
:100440001D1D1E1E1F202021222223242425262696
:10045000272829292A2B2C2D2D2E2F3031323233CB
:100460003435363738393A3B3C3D3E3F40414243D4
:100470004445464748494A4C4D4E4F5051535455B8
:100480005658595A5B5D5E5F616264656668696B68
:100490006C6D6F7072737577787A7B7D7E808283E6
:1004A0008587888A8C8E8F91939596989A9C9EA02A
:1004B000A2A3A5A7A9ABADAFB1B3B5B7BABCBEC037
:1004C000C2C4C6C9CBCDCFD1D4D6D8DBDDDFE2E400
:1004D000E7E9EBEEF0F3F5F8FAFDFF00AF00AE054B
:1004E000010902A10185020901A1000509190129DB
:1004F00008150025019508750181020501093009DB
:10050000311581257F9502750881060938158125E9
:100510007F950175088106050C0A38021581257F33
:10052000950175088106C0C005010980A1018503F8
:1005300019012AB700150126B70095017510810031
:10054000C0050C0901A101850419012AA0021501A9
:1005500026A002950175108100C005010906A101C0
:100560008506050719E029E715002501950875019D
:1005700081020507190029EF1500250195F0750185
:10058000810205081901290595057501910295015A
:1005900075039101C005010906A101050719E029AC
:1005A000E7150025019508750181029501750881FF
:1005B000010507190029FF150026FF00950675089B
:1005C000810005081901290595057501910295011C
:1005D00075039101C009023B00020100A0FA090461
:1005E0000000010301010009211101000122400066
:1005F0000705810308000109040100010300000050
:1006000009211101000122B6000705820320000123
:100610001201000200000008E0F7120400020102CB
:10062000000112036D006900630072006F00640036
:100630006F0078000000180342006F006100720034
:10064000640073006F0075007200630065000000B5
:100650000403090407087F0807003E5B4F5B3E0068
:100660003E6B4F6B3E001C3E7C3E1C00183C7E3CAB
:1006700018001C577D571C001C5E7F5E1C00001874
:100680003C180000FFE7C3E7FF0000182418000033
:10069000FFE7DBE7FF0030483A060E0026297929FC
:1006A0002600407F05050700407F05253F005A3C96
:1006B000E73C5A007F3E1C1C0800081C1C3E7F00C3
:1006C00014227F2214005F5F005F5F0006097F0134
:1006D0007F00006689956A0060606060600094A297
:1006E000FFA2940008047E04080010207E20100061
:1006F00008082A1C0800081C2A0808001E101010F0
:1007000010000C1E0C1E0C0030383E383000060E57
:100710003E0E060000000000000000005F00000028
:10072000000700070000147F147F1400242A7F2A8A
:100730001200231308646200364956205000000856
:1007400007030000001C224100000041221C0000A1
:100750002A1C7F1C2A0008083E0808000080703010
:100760000000080808080800000060600000201071
:10077000080402003E5149453E0000427F4000000F
:100780007249494946002141494D33001814127FEE
:1007900010002745454539003C4A4949310041216F
:1007A00011090700364949493600464949291E00C2
:1007B0000000140000000040340000000008142273
:1007C0004100141414141400004122140800020102
:1007D000590906003E415D594E007C1211127C0001
:1007E0007F49494936003E41414122007F41414114
:1007F0003E007F49494941007F09090901003E4106
:10080000415173007F0808087F0000417F410000CC
:100810002040413F01007F08142241007F404040BA
:1008200040007F021C027F007F0408107F003E41D1
:1008300041413E007F09090906003E4151215E0009
:100840007F091929460026494949320003017F01E1
:1008500003003F4040403F001F2040201F003F401A
:1008600038403F0063140814630003047804030055
:100870006159494D4300007F414141000204081085
:100880002000004141417F00040201020400404079
:100890004040400000030708000020545478400006
:1008A0007F284444380038444444280038444428CD
:1008B0007F0038545454180000087E09020018A420
:1008C000A49C78007F080404780000447D40000068
:1008D0002040403D00007F102844000000417F4040
:1008E00000007C04780478007C0804047800384414
:1008F00044443800FC182424180018242418FC0050
:100900007C080404080048545454240004043F4460
:1009100024003C4040207C001C2040201C003C4027
:1009200030403C004428102844004C9090907C00BB
:100930004464544C44000008364100000000770035
:1009400000000041360800000201020402003C26BB
:1009500023263C00000000000000404040F0F8F872
:10096000FF38FFF8F83FF8F8FF38FFF8F8F040409C
:100970004000000000000080C0C0C0800000C0C077
:100980008000000080C0C000C0C0000080C0C00067
:1009900000000000C0C0C0C0C000C0C00000000017
:1009A0000000000000000000000000000000000047
:1009B0000000000000000000000000000000000037
:1009C0000000000000000000000000000000000027
:1009D000000000C0F0F8FC3E1E06010000007F4150
:1009E00041417F007F4141417F000080C0E07E5B4C
:1009F0004F5BFEC00000C000DCD7DEDEDED7DC00CF
:100A0000C000000000000000000000000000000026
:100A100000000000000000000000494949FFFFFFFE
:100A2000FFE0DFBFBF00BFBFDFE0FFFFFFFF4949BF
:100A30004900000000001F3F6060E0BF1F007F7F93
:100A4000071E381E077F7F007F7F0E1F3B716000EF
:100A5000000000007F7F0C0C0C007E7E007F7E0378
:100A600003007F7E03037E7E03037F7E000F3E70C4
:100A70003C063C703E0F00327B49493F7E007F7E42
:100A80000303001E3F69696F26000000000000009C
:100A9000000000030F1F3F3C7870600000007F41A2
:100AA00041417F007F4141417F00307B7F78302092
:100AB0002030787F3B0003000F7F0F0F0F7F0F0068
:100AC0000300000000000000000000000000000023
:100AD00000000000000000000000010101070F0FEE
:100AE0007F0F7F0F0F7E0F0F7F0F7F0F0F0701010B
:100AF00001000000000000000000000101000000F3
:100B000000000000000000000000000000000000E5
:100B100000000000000000000000000000000000D5
:100B200000000000000000000000000000000000C5
:100B300000000000000000000000000000000000B5
:100B400000000000000000000000000000000000A5
:100B50000000000000000000000000000000000095
:100B60000000000000000000000000000000000085
:100B70000000000000000000000000000000000075
:100B80000000000000000000000000000000000065
:100B90000000000011241FBECFEFDAE0DEBFCDBFA2
:100BA00012E0A0E0B1E0ECE3FFE502C005900D9299
:100BB000A436B107D9F726E0A4E6B2E001C01D9241
:100BC000AE36B207E1F70E94B2250C94402F0C9488
:100BD000000090915D04937061F081110BC09460EE
:100BE00090935D041092530180915C048160809326
:100BF0005C040895883010F09C61F2CF880F880F54
:100C0000982BEECF90915D04937071F080935E0409
:100C100060935F04473908F046E94093600480918F
:100C20005C04816080935C040895E8EDF0E08081CD
:100C30008E7F80831092E2001092DA001092E10021
:100C4000A0EEB0E08C9181608C9380818F7780835F
:100C500019BCA7EDB0E08C918E7F8C9380818F7E44
:100C6000808310922A0408952091E4003091E500D9
:100C700095E6A9012091EC00822F817020FF06C02B
:100C80008091E80080FF06C080E008952091E80090
:100C900022FD1AC080914F04882389F0853089F0A5
:100CA0008091EB0085FD0FC02091E4003091E500BC
:100CB00042175307F9F29150E1F684E0089582E07B
:100CC000089583E0089581E008958091510487FF9D
:100CD00013C08091E80082FF06C08091E8008B7706
:100CE0008093E80004C080914F048111F2CF0895F1
:100CF00080914F048823D9F38091E80080FFF8CFDA
:100D00008091E8008E77ECCF982F9093E900242F04
:100D1000762F50E0891731F07091EC002091ED00B2
:100D20005091F00021FD07C09F5F973071F78093CD
:100D3000E90081E008953091EB003E7F3093EB00B5
:100D40003091ED003D7F3093ED003091EB0031604C
:100D50003093EB007093EC002093ED005093F00083
:100D60002091EE0027FDE0CF80E00895B0E0A0E004
:100D7000ECEBF6E00C947C2EC8EDD0E088818F7E01
:100D80008883E7EDF0E080818160808384E082BF2A
:100D900081E080932A0488818E7F888302EE10E0B0
:100DA000F80110821092DA0081EEC82ED12CF601E3
:100DB000108288818F778883888180688883888182
:100DC0008F7D888319BC10924F04109250041092AA
:100DD0004E0410924D0490EEE92EF12CF701808123
:100DE0008B7F808388818160888342E060E080E03F
:100DF0000E948406F60180818E7F8083F8018081C5
:100E000081608083808188608083F70180818E7F0C
:100E10008083888180618883CDB7DEB7E8E00C9459
:100E2000982EFC01809157049091580486179707DB
:100E3000A0F06115710529F49091E8009E779093D8
:100E4000E80090E06115710551F4911108C080919E
:100E5000E80082FF34C080E00895BC01F2CF8091A9
:100E60004F048823C1F18530C1F18091E80083FDF2
:100E700030C08091E80082FDEACF8091E80080FFD9
:100E8000E1CF8091F3002091F200382F61157105B8
:100E900019F02830310558F091E02830310509F07B
:100EA00090E02091E8002E772093E800CBCF81914D
:100EB0008093F100615071092F5F3F4FE7CF809120
:100EC0004F04882341F0853041F08091E80083FF92
:100ED000BECF81E0089582E0089583E00895809177
:100EE0002C04089587E797E7909301088093000802
:100EF00088E19AE00FB6F894A895809360000FBE41
:100F000090936000FFCF2FB7F89460912404709104
:100F1000250480912604909127042FBF08952091E5
:100F200052012223C9F02091280427FF15C0E62F83
:100F3000E695E695E695EE31D8F4E80FF92FF11D28
:100F4000677021E030E001C0220F6A95EAF7209532
:100F50008281282322830895FC01329608962191EC
:100F6000621303C0DF0111971C92E817F907B9F764
:100F70000895209152012223C1F02091280427FFD7
:100F800014C0E62FE695E695E695EE31F8F4E80F05
:100F9000F92FF11D677021E030E001C0220F6A9542
:100FA000EAF78281822B82830895FC0132962FEF2B
:100FB00030E04191641751F02F3F19F4411101C005
:100FC000232F3F5F3630A9F72F3F09F40895820F92
:100FD000911D27FD9A95FC0162830895A3E0B0E07E
:100FE000E4EFF7E00C94822E20912104309122044A
:100FF00028173907A1F09093220480932104E091EF
:101000001F04F0912004309751F024E029839B8342
:101010008A830680F781E02DCE01019609952396FB
:10102000E2E00C949E2EA3E0B0E0E9E1F8E00C943D
:10103000822E20911D0430911E0428173907A1F03B
:1010400090931E0480931D04E0911F04F0912004EE
:10105000309751F023E029839B838A830680F781B0
:10106000E02DCE01019609952396E2E00C949E2E88
:10107000FC01680F791F8FEF91E32191822728E00F
:1010800030E087FF09C0880F892721503109C9F74F
:10109000E617F70791F70895880FF7CFFA01811146
:1010A00001C0FB0109950895EDE5F4E0248130E1EC
:1010B000231B08F420E0248380915C0481608093EA
:1010C0005C040895EDE5F4E0248130E1230F08F499
:1010D0002FEF248380915C04816080935C040895E9
:1010E000EDE5F4E0438120E1421B08F440E081811A
:1010F000628190E00E9402060895EDE5F4E04381EC
:1011000020E1420F08F44FEF8181628190E00E945C
:1011100002060895EDE5F4E0628120E1621B08F427
:1011200060E08181438190E00E9402060895EDE530
:10113000F4E0628120E1620F08F46FEF8181438166
:1011400090E00E9402060895EDE5F4E0818143817C
:1011500062818850990B0E9402060895EDE5F4E043
:10116000818190E04381628108960E940206089581
:1011700080915D0486958695815009F487E00E94F0
:10118000E905089580915D04869586958F5F883086
:1011900008F081E00E94E905089580934C01809158
:1011A0005D04837080934B010E94DC0F83E0809389
:1011B000530108950E946A100895FF920F931F93A0
:1011C000CF93DF93182F062FF42ED0E0C0E02F2D01
:1011D000402F612FCE010E94DA082196CC32D10532
:1011E000B1F7CDB7DEB7E5E00C949B2EEF920F93ED
:1011F000CF93DF93D72FC82F0E192115310529F46E
:1012000080E857FD1CC080E01AC0F90137FF04C018
:10121000EE27FF27E21BF30BBA016E0F7F1F57FD6E
:1012200017C04E1B5F0BCA01E5E0880F991FEA95B6
:10123000E1F70E94B52E80E2861B37FD8195602F75
:10124000681B7D2F8C2FDF91CF910F91EF90089528
:10125000CB0165E0880F991F6A95E1F7BF01641B18
:10126000750B0E94B52E80E6E7CF30E020E0869F28
:10127000212D969F200D311D1124C9010895AF9293
:10128000BF92CF92DF92FF920F931F93CF93DF9382
:10129000362F472FE82FF0E0E552FC4F71110FC0B9
:1012A000E4918E2F2E2F6E2F722FDF91CF911F91F1
:1012B0000F91FF90DF90CF90BF90AF900895C72F10
:1012C000D0E02491F22E022F10E056E0659FC0017D
:1012D0001124EFEFF0E0BF010E945E2E832F90E01B
:1012E000880F991F35E5369FD001379FB00D112427
:1012F0008A1B9B0B982F990F980F6F01CC1ADD0A50
:10130000C09ED001C19EB00DD09EB00D11248B2F78
:10131000499FA0011124452F55276F01C41AD50AF2
:10132000C09EA001C19E500DD09E500D11245F01A2
:10133000A91AB108AC9E6001AD9ED00CBC9ED00C29
:101340001124CD2CDD24EC19FD09E09FE001E19F83
:10135000D00DF09FD00D1124ED2F62307105A1F05A
:1013600050F46115710509F49ECF6130710581F06B
:10137000EB2F852F98CF6430710569F080F06630CF
:10138000710509F490CFF4CFE22F2B2F8D2F8BCF47
:10139000E22F252F88CFEB2F822F2D2F84CF2B2FBD
:1013A0008F2DE52F80CFCF93DF93EC01FC01E95C1B
:1013B000FD4F8081682371F180915001909151011E
:1013C00025E038E0829FB001839F700D929F700DE1
:1013D0001124675E794C629FC001639F900D729FDC
:1013E000900D1124875E994C909351018093500188
:1013F000670F890F20E8829FC00111247FE7790FD2
:10140000809160040E943F09462F282F672FCE014C
:101410000E94DA08DF91CF91089580917F0380FDCB
:1014200016C081FD16C082FD16C080917E03882300
:10143000A1F0883280F428E0829FC001112468E284
:1014400070E00E94B52E862F672B39F0089582E058
:10145000089584E0089588E0089581E008958091DA
:101460007F0380FD14C081FD14C082FD16C08091F1
:101470007D03882381F08E3180F420E5829FC001B6
:1014800011246EE170E00E94B52E862F089584E14C
:10149000089588E2089588E0089580E5089580E041
:1014A0000895F894E82FE295EF70F0E031A1282F2D
:1014B0002F7081E090E001C0880F2A95EAF7982FFD
:1014C0009095932391A392A1892B82A37894089558
:1014D0009091280492FF06C0282F28712830F9F433
:1014E000877F846093FF06C0282F28712831F1F48C
:1014F000877E84612091290420FF06C0382F38712F
:101500003830D9F4877F816021FF06C0282F2871E9
:101510002831D1F4877E816194FD877E0895282F3C
:1015200024712430F9F68B7F8860DCCF282F24715A
:10153000243101F78B7E8861DDCF382F3171313056
:1015400019F78E7F8860E0CF282F2171213121F794
:101550008E7E8861E1CF82389105B9F1B0F4813394
:10156000910509F47DC048F48932910509F46DC0F4
:101570008A32910509F47BC008958533910509F4F9
:101580005FC08933910509F10895833E9105D9F132
:1015900038F4803E910529F1823E910579F1089554
:1015A000863E9105D9F1873E910509F43EC0843EFF
:1015B000910541F52091290421FF24C08091280440
:1015C00084FD19C087EE90E00895209128042370CF
:1015D00009F05AC02091290423FF14C089E290E049
:1015E00008952091280420FD38C03091290430FF4F
:1015F00009C024FF43C090E080E0089520912804B2
:1016000022FDF7CF08952091280422FD3AC03091A1
:10161000290430FD39C024FFF5CFEDCF20912804F7
:1016200023FFF0CF24FDE7CFCDCF2091280423FD69
:101630002EC03091290431FFEECF84EE90E0089562
:101640002091280425FFDECFC9CF2091280425FD55
:1016500021C02091290423FFD5CF89E390E0D2CF88
:101660002091280426FFCECF8AE290E008952091B1
:10167000280426FFC7CF81E390E0089583EE90E031
:10168000089582EE90E0089580EE90E0089586EE51
:1016900090E0089585E390E00895972F7830B8F4AE
:1016A0006530A8F48730B0F470E025E0929F600DBB
:1016B000711D1124FB0198E2899FE00DF11D112499
:1016C000EE0FFF1FE455FF4F85919491089580E040
:1016D00090E0089581E0FCCF1F93CF93DF930E94A9
:1016E000AB0AEC01C11580E5D807F0F5C11580E41F
:1016F000D80708F09CC0C03ED10520F5CD3CD105EF
:1017000008F082C0C83AD10578F4C53AD10508F08E
:1017100073C0C130D10519F1209709F1C430D1054A
:10172000F0F4D0E0C0E01BC0C13CD105D0F7C85AEE
:10173000D0E0CC0FDD1FC15ADE4F0990D881C02DFB
:10174000D4640DC0C11580E2D80708F0D1C0C1151E
:1017500081E0D80708F05AC0C83ED10510F7CE0185
:10176000DF91CF911F910895C03682E5D80718F513
:10177000C03482E5D80708F06BC0C03282E5D807D4
:1017800008F05FC0C11582E5D80708F497C02C2F78
:101790002695269580E2289F900111248C2F837036
:1017A000C1E0D0E002C0CC0FDD1F8A95E2F7C22B6A
:1017B000D32BDD68D4CFC03A82E5D80760F4C038B7
:1017C00082E5D80708F459C0CF71D0E0DC2FCC27D0
:1017D000C46FD06AC4CFC03C82E5D80708F462C0A9
:1017E000C03E82E5D80708F09CCFDC2FCC27CC2761
:1017F000DF71C06FD06AB3CFC55AD0E0C45ADE4F94
:10180000C881D0E0D064ABCFD065A9CF8D2F0E9426
:10181000680A182FCE0199270E94AB0AC12FD0E089
:10182000DC2FCC27CC27DF71C82BD92B98CFCE014A
:1018300099270E94AB0ACC27DF70C82BD92BD06A1E
:101840008ECFCF71D0E0DC2FCC27C16FD06A87CF8D
:101850002C2F26952695277080E2289F9001112431
:101860008C2F8370C1E0D0E002C0CC0FDD1F8A95C1
:10187000E2F7C22BD32BDC6872CF2C2F269526954E
:10188000277080E2289F900111248C2F8370C1E083
:10189000D0E002C0CC0FDD1F8A95E2F7C22BD32B1C
:1018A000DA685DCF8C2F8F710E94680AC82FD0E054
:1018B000DC2FCC27CC27DF71D06251CF8C2F8F71DA
:1018C0000E94680A55E0D695C7955A95E1F7CF7002
:1018D000D0E0DC2FCC27282F30E084FF05C044E087
:1018E000220F331F4A95E1F7C22BD32BD06937CF94
:1018F0008D2F8F710E94680A182FCE0199270E94A0
:10190000AB0AC12FD0E0DC2FCC27CC27DF71C82B4E
:10191000D92BD2CF0E94830708958091F6028111BE
:101920001092F602089580959091F5029823909375
:10193000F50208952091D2029091A10256E0291358
:1019400002C080E0089530E0529FF001539FF00DF7
:101950001124EE55FD4F7181761306C07081781306
:1019600003C07281741304C02F5F3F4F2770E7CF0D
:1019700081E008958091D2029091A102981301C054
:1019800008958F5F8770FACFB0E0A0E0EAECFCE04A
:101990000C947B2E7C01009156031091570380918B
:1019A000F7029091F802082B192BCFE0D0E0CC245D
:1019B000C394D12CBC2EC6010C2E02C0880F991FD7
:1019C0000A94E2F780239123892B49F4219790F719
:1019D000B12C8B2DCDB7DEB7E9E00C94972EB70173
:1019E0008C2F0E944D0B0E946C0B019779F3F1CF65
:1019F000CF93DF93EC010E94C40CBE010E944D0BFB
:101A00000E946C0BDF91CF910895983078F5853066
:101A100068F5E82FF0E085E0989FE00DF11D1124B6
:101A20009E2F977083E0F695E7958A95E1F7EE0F84
:101A3000FF1FEE0FFF1FE957FD4F50E040E080E031
:101A4000219130E0092E02C0369527950A94E2F7DD
:101A500021703327042E01C0220F0A94EAF7822B4B
:101A60004F5F5F4F4430510559F7089580E0089566
:101A7000983098F5853088F5E82FF0E085E0989F5C
:101A8000E00DF11D11248E2F877041E001C0440F3D
:101A90008A95EAF783E0F695E7958A95E1F7EE0FE8
:101AA000FF1FEE0FFF1FE957FD4F30E020E070E011
:101AB0005191DF011197CB01022E02C096958795B7
:101AC0000A94E2F7817081958527842385278C937A
:101AD0002F5F3F4F2430310559F7089590935703F6
:101AE00080935603089521E030E002C0220F331F97
:101AF0008A95E2F72095309580915603909157038F
:101B0000822393230E946E0D08959091D3028095B5
:101B100089238093D302282F277091F4282F082E31
:101B2000000C330B9217130659F09091290492FF81
:101B300007C08595859585950E94730D1092D302F7
:101B4000089521E030E002C0220F331F8A95E2F7AA
:101B50008091560390915703822B932B0E946E0D18
:101B600008959093F8028093F7020895FC01838111
:101B70009481892B29F08081918189238F3F51F4B1
:101B800080E00895843FE1F717C0883EA8F0813FC8
:101B9000B9F712C0808191810E94F80C92959F70D4
:101BA000963099F358F4925F9F70923048F7803FD7
:101BB00019F040F7883E20F781E008959A5FF4CF4E
:101BC000CF93DF93C0916C06D0916D068A30C1F43B
:101BD00020916304CE0186569440622F70E00E94EB
:101BE0005E2E281B822F66E00E94A92EC82FC150AE
:101BF00018F4DF91CF91089580E20E94E00DF7CFB5
:101C00008D30E9F4C656D44020916304622F70E011
:101C1000CE010E945E2E281B822F9E01280F311DAF
:101C20002115324018F080E0D0E0C0E0C80FD11D8F
:101C3000CA59DB4FD0936D06C0936C06DACF96E09D
:101C4000FE01A6E6B6E001900D929A95E1F7803E7E
:101C500008F458C086E0FE0111928A95E9F7C09118
:101C60006C06D0916D0646E050E0BE0186E696E037
:101C70000E94D82E9E0126563440892B41F1C9017D
:101C800045E0969587954A95E1F741E050E0BA0125
:101C900002C0660F771F8A95E2F7CB01609164045A
:101CA00070916504862B972BB9016B5F7F4FE5E040
:101CB00076956795EA95E1F702C0440F551F6A953E
:101CC000E2F7842B952B90936504809364042A5F3C
:101CD0003F4F40916304642F70E0C9010E945E2E63
:101CE000481B463010F4240F311D211572E03707D0
:101CF00010F030E020E02A593B4F30936D062093DE
:101D00006C0677CFF6E08F9FB00111246C5A794FA3
:101D100046E050E0CE010E94CF2EA1CFCF93DF93BB
:101D2000EC01FE018491811103C0DF91CF910895F0
:101D30000E94E00D2196F5CF8091F5029091F4027A
:101D4000892B809366029091F6029923A1F0892B4A
:101D500080936602809152018823E1F180912804EA
:101D600087FF38C08EE1E8E6F2E090E08150A0F510
:101D700091110E948D0C40E250E064ED72E086E625
:101D800092E00E94D82E892B21F180E2E6E6F2E073
:101D9000A4EDB2E001900D928A95E1F7E0911F0465
:101DA000F09120043097A9F080915201882359F0D6
:101DB0008091280487FF07C08091660280936702A4
:101DC00086E0809366020280F381E02D86E692E051
:101DD0000995089586E0C7CF2191222339F29F5FAC
:101DE000C5CF882321F00E94930C0E949C0E089579
:101DF000882339F09091F502982B9093F5020E9478
:101E00009C0E0895B0E0A0E0E8E0FFE00C947C2E8A
:101E10006C017B0164E670E088E70E94BC2BEC015A
:101E200097FD12C010E000E0F601E00FF11F849171
:101E300064E670E00E94282CEC01892B29F40F5FE6
:101E40001F4F0E151F0581F70E949E2CCE01CDB7A6
:101E5000DEB7E8E00C94982E80911B0490911C044E
:101E6000911103C091E089270895882369F062E009
:101E700070E08DED94E00E94020F892B19F08091A3
:101E80001B04089510921B0480911B04EBCFCF9389
:101E9000C0911B0480911C048823D1F00E94830709
:101EA000605A75418F4F9F4F6093170470931804C9
:101EB0008093190490931A04C11108C062E070E085
:101EC0008BED94E00E94020F892B29F0C0911B0436
:101ED0008C2FCF91089581E080931B04F7CF0F934F
:101EE0001F93CF93DF938B01EA0190914F049430BD
:101EF00061F58093E9008FEF9091E800815095FDA6
:101F000006C095ED9A95F1F700008111F5CF80910B
:101F1000E80085FF1AC00E943406811111C080912B
:101F2000E80085FD06C08091E8008E778093E80088
:101F3000F2CFF80181918F018093F100219779F719
:101F40008091E8008E778093E800DF91CF911F9118
:101F50000F91089543E050E0BC0182E00E946F0FB2
:101F6000089546E050E0BC0182E00E946F0F0895A2
:101F7000CF93DF93EC0180915201811111C048E0B1
:101F800050E0BE0181E00E946F0F80E2FE01ADE2F1
:101F9000B4E001900D928A95E1F7DF91CF91089519
:101FA0008091280487FF05C040E282E050E0BE0136
:101FB000EACF48E081E0FACF259A35B13F7D25B1DF
:101FC00020624FB7F89483E993E0FC015191CF016F
:101FD00068E025B9000000C057FF35B9550F000073
:101FE00000C000C000C035B900C06A9591F7F4E0A8
:101FF00087319F0751F74FBF8FE594E00197F1F7C5
:1020000000C000000895B0E0A0E0E9E0F0E10C9429
:102010007A2E7C015B016A0180912C0301E010E0C3
:102020008A3010F40AE010E0C1E0D0E0B501C70149
:10203000F6010995811104C021960C171D072CF497
:10204000CDB7DEB7EAE00C94962ECC9F9001CD9FE1
:10205000300D300D112490E080E045E34A95F1F712
:102060000000019682179307C1F7E0CF8091050326
:10207000811110C08091D80080618093D8008AE1DE
:102080008A95F1F700C08091D90080FF0AC081E0F5
:102090008093050381E090910503913009F080E081
:1020A000089582E0809305030E94150610924F0464
:1020B000F1CF0E943610882359F0E0911F04F0916F
:1020C0002004309729F00190F081E02D09950895C2
:1020D00080E00895FF920F931F93CF93DF93EC015D
:1020E000F62E042F122F0E94361081110FC0C63118
:1020F000D1057CF06697FE01EE0FFF1FEC0FFD1F70
:10210000ED56FC4FF1820083128303C0C631D10526
:1021100094F3CDB7DEB7E5E00C949B2ECF93C82F98
:102120000E943610882329F081E0C63128F080E033
:1021300003C081E0CC32D8F7CF910895B0E0A0E0A1
:10214000E4EAF0E10C947A2E182F80914C0181136F
:1021500023C090915D04937020914B0130E081E0A9
:102160009217130609F480E0817080934F018091EB
:10217000620490914E01981739F080934E0140E02F
:1021800060E080E00E94DD08183060F4E12FF0E0AC
:10219000EE5BF04D0C94C92E81E0E6CF80914F01AB
:1021A000811102C0C0E060C240E060E080E00E94B7
:1021B000DD08F8CFC0914D0189E0C89FC02D1124E2
:1021C00009E00C0F0D3208F00CE20E943610882353
:1021D00019F0073108F006E10E943610811103C0A2
:1021E000C63108F4C6E160915E0470915F0480918D
:1021F00060040E943F09F62EE72ED82ED0E0C017CB
:1022000010F0802F05C1FE01E95CFD4F80819091A7
:102210004E01892331F02D2D4F2D6E2DCE010E94C0
:10222000DA082196ECCFC0914D0189E0C89FC02DFE
:10223000112409E00C0F0D3208F00CE20E94361058
:10224000882319F0073108F006E10E943610811149
:1022500003C0C63108F4C6E1E0905F04F09060046A
:10226000D0915E046D2F7E2D8F2D0E943F09D62EBA
:10227000C72EB82E609161046D0F7E2D8F2D0E94A8
:102280003F09F62EE72EA82ED0E0C01708F0B9CFF0
:10229000FE01E95CFD4F908180914E01892359F048
:1022A0002A2D4F2D6E2D90FD03C02B2D4D2D6C2D05
:1022B000CE010E94DA082196E8CFC0914D0189E055
:1022C000C89FC02D112409E00C0F0D3208F00CE25C
:1022D0000E943610882319F0073108F006E10E94A9
:1022E0003610811103C0C63108F4C6E1E0905F04E6
:1022F000D090600420916104F0E4FF2E3F2D329FC6
:10230000312D1124F32ED0E0C01708F07ACFFE0152
:10231000E95CFD4F808190914E018923D9F0FE0147
:10232000EE0FFF1FE954FE4F60A5F69EB001112489
:10233000E5E075956795EA95E1F780915E04680F91
:102340007E2D8D2D0E943F09462F282F672FCE010D
:102350000E94DA082196D8CFC0914D0189E0C89F2C
:10236000C02D1124D9E0DC0FDD3208F0DCE20E9440
:102370003610882319F0D73108F0D6E10E943610C4
:10238000811103C0C63108F4C6E1F0905E040091EB
:102390005F04E090600460916104669566956695BF
:1023A00080918E0390918F030E943509E82F86FD5E
:1023B000E0952E2F2F7086FD2F5FE695E695E6952A
:1023C000E670F0E0E155FE4F9181929F902D212D16
:1023D000112492959F702295207F922B2081920F3D
:1023E00087FD9195892F87FD8195880F282F3E2D98
:1023F000239F212D1124822F6F2D702F0E943F09C2
:10240000062FD72EC82EEC2EF12CED1628F08D2F8E
:102410000E948E10C82F28C1F701E95CFD4F808112
:1024200090914E01892331F02C2D402F6D2DC70145
:102430000E94DA088FEFE81AF80AE7CFC0914D0141
:1024400089E0C89FC02D112409E00C0F0D3208F05F
:102450000CE20E943610882319F0073108F006E1DB
:102460000E943610811103C0C63108F4C6E16091A4
:1024700061046695669521E0620F08F46FEF809124
:102480008E0390918F030E943509F82ED0E0C0177B
:1024900008F0B7CEFE01E95CFD4F808190914E01BE
:1024A000892399F070915F04FE01EE0FFF1FE9543C
:1024B000FE4F60A56F19809160040E943F09462F6E
:1024C000282F672FCE010E94DA082196E0CFC09115
:1024D0004D0189E0C89FC02D112459E0F52EFC0E56
:1024E000BCE2BF1510F44CE2F42E0E943610882393
:1024F00029F0E6E1EF1510F436E1F32E0E943610D4
:10250000811103C0C63108F4C6E16091610466958B
:1025100080918E0390918F030E943509B82ED0E0F0
:10252000CE01880F991F9C0129543E4F6901CF1598
:1025300010F08F2D6DCFFE01E95CFD4F80819091F1
:102540004E01892309F451C0D60198964C91989771
:102550004057550B99962C912052330B449FB00154
:10256000459F700D700D1124229FC001239F900D77
:10257000900D1124680F791F062F6230710520F12C
:102580008FEF613EBEE17B0738F4CB01B5E0969555
:102590008795BA95E1F7885F91E0A92FA80FBB272F
:1025A000BB1FFD01F595E7950E2FEE9FD001EF9F24
:1025B000B00DB00D11246A177B07E0F48FEF8E0F7A
:1025C000891758F70FEF090F60915E0470915F044F
:1025D00080916004EB2C0E94F6080E943F09462F70
:1025E000282F672FCE010E94DA082196B2E0CB0E89
:1025F000D11C9DCFEF3F41F391E09E0FE1CFC09101
:102600004F01C11149C06091610420E1620F08F4DB
:102610006FEF80918E0390918F030E94350965E0E2
:1026200070E00E945E2E892B09F0BCCD40915001D4
:102630005091510125E038E0429FC001439F900D29
:10264000529F900D1124875E994C90935101809375
:102650005001890FFCE28F9FC001112460914E014F
:10266000892F90E00E94D30980914D018F5F809364
:102670004D01C1110CC082E08093530180914F0144
:10268000811105C0111103C083E080935301CDB7C0
:10269000DEB7EAE00C94962EC0914D0189E0C89F08
:1026A000C02D112409E00C0F0D3208F00CE20E943D
:1026B0003610882319F0073108F006E10E94361021
:1026C000811103C0C63108F4C6E1D0E0E02EF12C40
:1026D000CE15DF050CF095CD60914E01CE010E9424
:1026E000D3092196F5CF0F931F930E9436108823AC
:1026F00029F00E9483071F910F9108950E9483077C
:1027000000912D0310912E0320912F03309130035F
:10271000600F711F821F931FEECFCF92DF92EF9257
:10272000FF920E94731360938A0370938B038093CC
:102730008C0390938D032091920330E0211108C007
:1027400020915D04322F337019F0322F3695369573
:10275000209153012130C9F0222349F02230C9F0E1
:102760002330D9F0FF90EF90DF90CF900895109232
:102770004D0160938E0370938F0380939003909329
:10278000910381E080935301EDCF832F0E949E102F
:10279000E9CF832F0E94CD08E5CF80915C04882388
:1027A00051F046E050E06CE170E08DE594E00E946D
:1027B0000C2F10925C04C0908E03D0908F03E09099
:1027C0009003F09091030E9436108823C1F02FB738
:1027D000F8946091240470912504809126049091CE
:1027E00027042FBF6C197D098E099F09603171057F
:1027F0008105910508F4B6CF10925301B3CF0E9422
:102800007313F0CFEDE5F4E085E18083809154010E
:1028100090915501A091560181839283A3838FE704
:1028200084838FEF858346E050E06CE170E0CF0158
:102830000E940C2F10925C0408959091290492FB41
:10284000222720F9281779F080FB92F99093290428
:10285000609128047091290484E090E00E943A2F4E
:1028600082E00E94850D0895A7E0B0E0EAE3F4E17C
:102870000C94802E86E0EDE5F4E0DE0111960190E7
:102880000D928A95E1F7809192038F8347E050E0A3
:1028900061E273E0CE0101960E94D82E00912803D8
:1028A0001091290320912A0330912B03EFB7F8945C
:1028B00040912404509125046091260470912704CE
:1028C000EFBF401B510B620B730B44365105610582
:1028D000710518F411E0892B21F180912901909163
:1028E0002A018A5E9C4F4091280150E048305105F2
:1028F00010F047E050E0BE016F5F7F4F0E94E52E71
:1029000085E090E00E94E82D182F882351F00E9466
:102910008307609328037093290380932A0390937D
:102920002B03812F2796E4E00C949C2EA4E0B0E0CA
:10293000ECE9F4E10C94812E4091120350911303C1
:1029400060911403709115032FB7F89480912404BB
:1029500090912504A0912604B09127042FBF841BD9
:10296000950BA60BB70B11E084369105A105B105B7
:1029700070F10E9473136E5F7F4F8F4F9F4F69837B
:102980007A838B839C8380912101909122018A5EBE
:102990009C4F4091200150E04530510510F044E03B
:1029A00050E0BE016F5F7F4F0E94E52E84E090E013
:1029B0000E94E82D182F882351F00E94830760930E
:1029C0001203709313038093140390931503812FC4
:1029D0002496E3E00C949D2E4F925F927F928F920B
:1029E0009F92AF92BF92CF92DF92EF92FF920F939E
:1029F0001F93CF93DF930F92CDB7DEB7C62E4A0158
:102A00005901482E880F5508C2010E94E82D782EE2
:102A1000882309F480C0C20133E0880F991F3A95DA
:102A2000E1F7FC01E050FF4F438150E041155105B3
:102A300011F041E050E080509F4FFC0164817581AE
:102A40006A5E7C4FCE0101960E94E52EF401408122
:102A50005181628173812FB7F89480912404909101
:102A60002504A0912604B09127042FBF841B950B49
:102A7000A60BB70B84369105A105B10540F4B7014B
:102A8000C8010E9438089981891709F444C00C2CA8
:102A9000000CDD08C6010E94E82D782E811113C0BC
:102AA000712C872D0F90DF91CF911F910F91FF9087
:102AB000EF90DF90CF90BF90AF909F908F907F90DE
:102AC0005F904F900895C60123E0880F991F2A95C3
:102AD000E1F7FC01E050FF4F438150E0E416F506BA
:102AE00008F4A70180509F4FFC01648175816A5EE4
:102AF0007C4FC5010E94E52EB701C8010E9438082D
:102B000099818913CDCF0E948307F401608371837B
:102B100082839383C6CFA701B801C5010E94E52E29
:102B2000C0CFA4E0B0E0E7E9F5E10C947C2E6B01A6
:102B300084E0E82EF12C07E113E09E012F5F3F4F68
:102B40004AE053E061E080E00E94EC14882361F0E9
:102B500049815A816B817C8140930603509307031E
:102B60006093080370930903409106035091070393
:102B70006091080370910903F601408351836283D9
:102B800073832496E8E00C94982E67EE7EEF90E035
:102B900080E00E943A2F60E082E090E00E941C2FCB
:102BA00060E083E090E00E941C2F1092F8021092E7
:102BB000F70260E074E184E090E00E943A2F60E068
:102BC00086E090E00E941C2F6FEF87E090E00E946B
:102BD0001C2F40E050E0BA0188E090E00E942E2FC8
:102BE00060E08DE090E00E941C2F40E050E0BA01D0
:102BF00088E190E00E942E2F60E087E190E00E9443
:102C00001C2F40E050E0BA018CE190E00E942E2F92
:102C100070E060E080E290E00E943A2F40E050E0F7
:102C2000BA0188E190E00E942E2F40E050E0BA0106
:102C30008FE090E00E942E2F40E050E0BA0183E147
:102C400090E00E942E2F08951F920F920FB60F92C0
:102C500011242F933F934F935F936F937F938F93A1
:102C60009F93AF93BF93EF93FF938091E10082FF17
:102C700009C08091E20082FF05C08091E1008B7F56
:102C80008093E1008091DA0080FF24C08091D80019
:102C900080FF20C08091DA008E7F8093DA008091DF
:102CA000D90080FF9DC080E189BD82E189BD09B462
:102CB00000FEFDCF81E080934F0480912A048111B2
:102CC00009C00E9415060E94B6068091E200846049
:102CD0008093E2008091E10080FF17C08091E200C4
:102CE00080FF13C08091E2008E7F8093E20080918C
:102CF000E20080618093E2008091D800806280933E
:102D0000D80019BC85E080934F048091E10084FFD6
:102D10002BC08091E20084FF27C080E189BD82E161
:102D200089BD89B5982F917080FFFBCF8091D80025
:102D30008F7D8093D8008091E1008F7E8093E100A9
:102D40008091E2008F7E8093E2008091E2008160BA
:102D50008093E20080915004882309F447C084E006
:102D600080934F0480914F048091E10083FF27C03E
:102D70008091E20083FF23C08091E100877F8093F0
:102D8000E10082E080934F04109250048091E100B2
:102D90008E7F8093E1008091E2008E7F8093E2003D
:102DA0008091E20080618093E20042E060E080E098
:102DB0000E9484068091F00088608093F000FF916B
:102DC000EF91BF91AF919F918F917F916F915F91A3
:102DD0004F913F912F910F900FBE0F901F9018951C
:102DE00019BC10924F0410922A0474CF8091E30012
:102DF00087FD93E090934F04B5CF78941F921FB650
:102E00001F9211248F939F93AF93BF9380912404BB
:102E100090912504A0912604B09127040196A11D4C
:102E2000B11D8093240490932504A0932604B093AD
:102E30002704BF91AF919F918F911F901FBE1F904C
:102E400018959C014FB7F894809124049091250423
:102E5000A0912604B09127044FBF821B930B0895C5
:102E60002FB7F8948091240490912504A091260412
:102E7000B09127042FBF08950E9430179C019091B4
:102E8000860380918703982B21F03093830320934E
:102E900082039091880380918903982B21F03093CD
:102EA000810320938003E0911F04F0912004309768
:102EB00049F082E0809384030480F581E02D84E86A
:102EC00093E0099508951092F50280915201E8E689
:102ED000F2E0882329F18091280487FF21C08EE148
:102EE000DF011D928A95E9F790E080E00E941308C7
:102EF00090E080E00E94EE071092F4020E949C0E87
:102F000086E0E4E8F3E0DF011D928A95E9F710928C
:102F10007D0310927E0310927F030E943C17089558
:102F200086E0DECFAAE2B0E0E8E9F7E10C94812E7A
:102F300081E594E02091F100FC012193CF01F4E0C0
:102F400089359F07B9F780915204833009F470C026
:102F5000B8F4813009F447C0823009F4B1C08091DF
:102F6000E80083FF7EC280915104909152049A3010
:102F700008F077C2E92FF0E0E65BF04D0C94C92E23
:102F80008A3009F48CC08B3009F46FC0893039F76E
:102F900080915104813219F7809155049091560423
:102FA0000297E8F68091E800877F8093E80080919F
:102FB000E80082FF38C09091F3008091F200029700
:102FC00031F48091F100813011F0863021F480914C
:102FD000F10080932C048091E8008B778093E800C7
:102FE0000E946506BCCF80915104813A09F0B7CFA9
:102FF0008091E800877F8093E8008091550490914C
:103000005604892B61F460E28DE294E070E00E9446
:1030100011078091E8008B778093E800A0CF60E0F3
:1030200090E080E0F3CF80914F048111C0CF97CF23
:1030300080915104813A09F092CF8091550490918A
:103040005604892B09F08BCF8091E800877F80930D
:10305000E8008091E80080FFFCCF809152018093CE
:10306000F1008091E8008E77B9CF809151048132D0
:1030700009F075CF8091550490915604892B09F081
:103080006ECF8091E800877F8093E8000E946506FC
:1030900080915304809352010E94631760CF809106
:1030A0005104813209F05BCF8091E800877F8093E3
:1030B000E8000E9465068091540480932B044FCF52
:1030C00080915104813A09F04ACF8091E800877FCE
:1030D0008093E8008091E80080FFFCCF80912B0472
:1030E000BECF803899F0823809F0BBC18091550479
:1030F0008F70873008F0B5C18093E9008091EB00B4
:1031000085FB882780F91092E90006C080914D0464
:1031100090914E04911182609091E800977F909376
:10312000E8008093F1001092F1008091E8008E7722
:1031300094C1882309F482C1823009F092C1809140
:103140005304811185C1809155048F702FEF280F92
:10315000263008F086C18093E9002091EB0020FF23
:1031600077C1933031F48091EB0080628093EB0063
:103170006FC19091EB0090619093EB0021E030E003
:1031800001C0220F8A95EAF72093EA001092EA0024
:103190008091EB008860EACF811163C110915304E4
:1031A0001F778091E3008078812B8093E3008091EA
:1031B000E800877F8093E8000E9465068091E80020
:1031C00080FFFCCF8091E30080688093E30082E081
:1031D000111183E080934F0444C18058823008F07D
:1031E00040C180915304909154048C3D23E0920798
:1031F000A1F583E08A838AE289834FB7F894DE01E0
:10320000139620E03EE051E2E32FF0E050935700A8
:10321000E49120FF03C0E295EF703F5FEF708E2FC7
:1032200090E0EA30C0F0C7968D939D932F5F2431D4
:1032300059F74FBF8091E800877F8093E8006AE2EA
:1032400070E0CE0101960E9411078091E8008B7713
:103250008093E80006C1C096E7CF40915504509195
:103260005604292F33272330310509F444C078F55B
:103270002130310509F46FC08BE390E0E5EDF5E016
:103280002230310509F0EDC02091E800277F20931E
:10329000E80020915704309158048217930708F4EE
:1032A0009C0140E02115310509F064C0411162C064
:1032B0008091E80082FDC9CF80914F04882329F2D4
:1032C000853019F28091E80083FFF2CFBECF213222
:1032D0003105A9F12232310509F0C3C0411551056C
:1032E00009F443C04130510509F0BBC086EB90E0C2
:1032F000EFEDF4E0C9CF992781309105C1F0009737
:1033000059F0029709F0ADC0E2E2F6E0E4918E2FA9
:1033100090E0E2E2F6E007C0E0E5F6E0E4918E2F0F
:1033200090E0E0E5F6E0009709F49BC0ADCFE6E35E
:10333000F6E0E4918E2F90E0E6E3F6E0F4CF41155D
:10334000510571F04130510509F08BC089E090E0E2
:10335000E0E0F6E099CF82E190E0E0E1F6E094CFA2
:1033600089E090E0E7EEF5E08FCF80E490E0E5E9DA
:10337000F5E08ACF80914F04882309F466CF853029
:1033800009F463CF8091E80083FD5FCF8091E8006E
:1033900082FD8ECF8091E80080FF84CF9091F30072
:1033A0008091F2002115310519F08830910550F017
:1033B00041E0089709F040E08091E8008E77809323
:1033C000E80070CF44914093F100319621503109CB
:1033D0000196E8CF803809F044C08091E800877FEB
:1033E0008093E800809150048093F1009ECE81117B
:1033F00038C0109153041230A0F58091E800877F07
:103400008093E800109350040E946506112311F088
:1034100084E005C08091E30087FDFACF81E08093CE
:103420004F0442E061EC81E00E94840642E261ECDC
:1034300082E00E94840680914F0413C0809153045F
:10344000813079F481E0933009F080E080934E047C
:103450001092E9008091E800877F8093E8000E9445
:1034600065068091E80083FF0AC08091E800877FAD
:103470008093E8008091EB0080628093EB00AA9635
:10348000E3E00C949D2E1F920F920FB60F92112421
:103490002F933F934F935F936F937F938F939F935C
:1034A000AF93BF93CF93DF93EF93FF93D091E90056
:1034B000DF708091EC00C82FC17080FDC0E81092D1
:1034C000E9008091F000877F8093F00078940E945B
:1034D00092171092E9008091F00088608093F000CC
:1034E000CD2BCF70C093E900FF91EF91DF91CF9189
:1034F000BF91AF919F918F917F916F915F914F910C
:103500003F912F910F900FBE0F901F9018950E9422
:1035100063172FEF84E39CE0215080409040E1F757
:1035200000C0000088E19AE00FB6F894A895809357
:1035300060000FBE90936000FFCF662309F45DC06A
:103540008D3C41F40E942F0A8195809387030E944D
:103550003C1708958E3C19F40E942F0AF6CF8F3C39
:1035600031F40E942F0A819580938603F0CF803D2D
:1035700019F40E942F0AF8CF893D29F40E940D0A00
:1035800080938803E4CF8A3D21F40E940D0A81953F
:10359000F7CF8B3D31F40E940D0A8195809389030A
:1035A000D6CF8C3D19F40E940D0AF8CF9FE2980FF8
:1035B000983070F4815D990B21E030E001C0220F5A
:1035C0008A95EAF780918503822B80938503BFCF8C
:1035D0008D3D31F480917F03816080937F03B7CF6D
:1035E0008E3D21F480917F038260F7CF8F3D09F0FB
:1035F000AECF80917F038460F0CF409186038D3CF5
:1036000059F48091870387FF0DC010928703411101
:103610000BC010927D0308C08E3C81F4809187031B
:1036200018169CF3442381F08091880390918903BC
:10363000892B09F08CCF10927E0389CF8F3C49F4FF
:1036400047FFF0CF10928603809187038111ECCF62
:10365000E0CF803D19F41416ACF3E4CF90918803C9
:10366000893D29F41916F4F610928803DBCF8A3DC0
:1036700019F497FFD7CFF8CF909189038B3D29F4A8
:1036800097FFD0CF10928903CDCF8C3D19F4191636
:10369000CCF3C8CF9FE2980F983090F4815D990BDE
:1036A00021E030E0B90102C0660F771F8A95E2F78A
:1036B000CB01809590918503892380938503B2CFB8
:1036C0008D3D31F480917F038E7F80937F03AACF5D
:1036D0008E3D21F480917F038D7FF7CF8F3D09F0E0
:1036E000A1CF80917F038B7FF0CF882399F19CEF4E
:1036F000980F913A40F4682F86E692E00E948F0777
:103700000E949C0E089590E2980F983050F48770B4
:1037100091E001C0990F8A95EAF7892F0E94930CD6
:10372000EFCF9BE5980F933028F490E080E00E9463
:103730001308089598E5980F9B3128F490E080E0F5
:103740000E94EE07089593E3980F933118F460E018
:103750000E949D1A0895CF93C82F8823D1F18CEF32
:103760008C0F813AC0F580915201882311F180912C
:10377000280487FF1EC0EC2FE695E695E695F0E05D
:10378000EA59FD4F828190E04C2F477021E030E0F4
:1037900002C0220F331F4A95E2F782239323892B1D
:1037A00089F06C2F86E692E00E948F070E949C0EA3
:1037B00009C0E8E6F2E08191C81799F382E0EE369D
:1037C000F807C9F76C2F86E692E00E94B9070E94BD
:1037D0009C0ECF91089580E28C0F883068F4C770FA
:1037E00021E030E001C0220FCA95EAF78091F5028E
:1037F000822B8093F502EBCFEBE5EC0FE33040F446
:10380000F0E0E45AFE4F808190E00E941308E1CF7F
:10381000E8E5EC0FEB3150F4F0E0EE0FFF1FE15A5A
:10382000FE4F808191810E94EE07D3CF83E38C0FFE
:10383000833178F661E08C2F0E949D1ACACF1F93C6
:10384000CF93DF93182FEB010E94AB1B209739F425
:10385000812F0E94751BDF91CF911F9108958FE9F1
:103860009FE00197F1F700C000002197EFCF0F9381
:103870001F93CF93DF93C62FD42F022FFC01828199
:103880008823A9F060935B040E94301790935A0438
:1038900080935904C77081E001C0880FCA95EAF788
:1038A0000E94F80EDF91CF911F910F9108958091A2
:1038B0005B04681334C08091590490915A040E94AB
:1038C0002117883C910558F510E21D0FCD17B9F06E
:1038D00080E28C0F883040F4C77081E001C0880F0F
:1038E000CA95EAF70E94F10E183048F481E09D2F46
:1038F000977001C0880F9A95EAF70E94F80E70E061
:1039000060E0802F0E941F1C183060F6D77081E0A5
:1039100001C0880FDA95EAF70E94F10EC3CFC77095
:1039200081E001C0880FCA95EAF7F6CF81110DC07A
:10393000662339F06AE070E089EA0E941F1C81E08A
:1039400008956AE070E08AEAF8CF70E0662319F023
:1039500060E08BEAF2CF60E08CEAEFCFA1E0B0E06C
:10396000E4EBFCE10C947B2EEE24E394F12C0CE1CF
:1039700013E09E012F5F3F4F4EE053E063E082E093
:103980000E94EC14C82E882339F100E080E01DC0AD
:10399000D0903203D00E2D2D30E0A901425B5C4F58
:1039A0007A01E1E0F0E0EC0FFD1FE00FF11D108166
:1039B000FA019081191BB12E1B149CF0912F17FD59
:1039C00090E0191B111118C00F5F90913103091776
:1039D000F8F281110E948A0C8C2D2196E9E00C945A
:1039E000972EBA94F70180818F5F808360E08D2DE0
:1039F0000E94961C8C2DE0CF1F5FF70180818150C3
:103A0000808361E08D2D0E94961C8C2DDBCFA5E07C
:103A1000B0E0EDE0FDE10C94782E7C01FC018381A7
:103A20009481892B31F08081918189238F3F09F026
:103A3000EDC32596ECE00C94942E0E94C40C182F34
:103A4000682F89819A810E94380D69817A81812F3E
:103A50000E944D0B8C01FC01E851FC47E730F10559
:103A600088F5EC5AF04D0C94C92E26E241EE61EE39
:103A7000C7010E94371C8091D3028770D1F2F701F1
:103A800082818823B1F28091290482FFD2CF82E023
:103A90000E94850DCECF27E245EE65EEE9CF26E206
:103AA00041EE60EEE5CF27E245EE64EEE1CF26E29F
:103AB00041EE62EEDDCF27E245EE66EED9CF28E299
:103AC00041E0EBCFF7018281882309F4C6C310924D
:103AD0005B04C8019057839708F0A9C384E090E085
:103AE0000E94062F9093290480932804F801E15046
:103AF000F047E232F10520F4E55AF04D0C94C92E5E
:103B00008091280481608093280495C080912904C5
:103B10008860809329048FC0809128048260F3CF4D
:103B2000809128048460EFCF809128048860EBCFD7
:103B3000809129048160EDCF809129048260E9CFD2
:103B4000809128048061DFCF809128048062DBCFE0
:103B5000809128048064D7CF0E9463178091280445
:103B60008068D1CF809128048C60CDCF80912904CA
:103B70008360CFCF809128048E7FC5CF80912904A8
:103B8000877FC7CF809128048D7FBDCF8091280487
:103B90008B7FB9CF80912804877FB5CF809129048E
:103BA0008E7FB7CF809129048D7FB3CF8091280479
:103BB0008F7EA9CF809128048F7DA5CF8091280486
:103BC0008F7BA1CF0E946317809128048F779BCFB2
:103BD00080912804837F97CF809129048C7F99CF8F
:103BE0008091280482FB992790F921E0922790FB8D
:103BF00082F990FB83F987CF80912904982F9095C3
:103C000091708E7F892B90FB81F983CF909128044E
:103C1000892F8F7B96FF806476CF0E9463179091E7
:103C20002804892F97FB87F980586DCF61E08EE0DB
:103C300090E00E941C2F609128047091290484E078
:103C400090E00E943A2F0E94631715CF60E0EFCFFB
:103C500090912804892F8F7E94FF806154CF90919A
:103C60002804892F8E7F90FF81604DCF9091290489
:103C7000892F877F93FF88604CCF80915D0491E00E
:103C8000892780935D041092530180915C048160C8
:103C900080935C04F0CE48EB58E062EC78E00E9440
:103CA0004E08E9CE42EC58E068EB78E0F8CF44EA01
:103CB00058E06EEA78E0F3CF4EEA58E064EA78E044
:103CC000EECF4AE858E067E978E0E9CF47E958E005
:103CD0006AE878E0E4CF40E758E06DE778E0DFCFCE
:103CE0004DE758E060E778E0DACF44E558E062E677
:103CF00078E0D5CF42E658E064E578E0D0CF81E0C7
:103D00000E94E905B8CE84E0FBCF85E0F9CF0E94A0
:103D10006317FFEF24E33CE0F15020403040E1F72F
:103D200000C000000E9472076FEF7FEF90E080E01C
:103D30000E943A2F0E94871A8091290482FB8827CB
:103D400080F991E089270E941D14F701828100818A
:103D50001181882309F449C0C8010E94C40CD82EDF
:103D6000682FC8010E94380DB8018D2D0E944D0B9F
:103D70000E946C0B8C01882EF701A2809580929492
:103D80003FE093228091D3028770F1F0CA2CAA20E1
:103D9000E1F0812F807F803451F080E2800F883005
:103DA00098F0911004C0812F807E803269F080915C
:103DB000290482FF09C082E00E94850D8091D30210
:103DC0008770CC24C3948111C12CB12EB2942FE002
:103DD000B222FBE0FB1508F474C0EB2DF0E0E358D1
:103DE000F04D0C94C92E80E0AECFC8010E94050DA5
:103DF000D82EBACF212F2F70D22E107F19F0D29447
:103E000090EFD922AA20B9F0DD2069F080E2800F7E
:103E1000883010F0811009C08091F502D82AD09224
:103E2000F5020E949C0E802F4AC08091F402D82A8D
:103E3000D092F402F6CF802F0E94751BDD2009F48A
:103E400040C0005E083010F0811004C08D2D0E942B
:103E5000930C06C0D0948091F402D822D092F40240
:103E60000E949C0E2EC0312F3F70D32E107F103237
:103E700019F0D29480EFD822882089F081E088164A
:103E800009F47CC0AA2009F486C0992009F47CC0FA
:103E9000F701858180FFC7CF8F70858375C0209122
:103EA000290422FD43C0AA20D9F1DD2039F08091F8
:103EB000F502D82AD092F5020E949C0E80E00E9462
:103EC000AB1BEB2DE850FF0B349710F40E945910F8
:103ED000CC20A9F08091D30280FD11C0F70112829D
:103EE0008595859585950E94A10DC7010E94071DA6
:103EF0008091D3028595859585950E94730D85E007
:103F0000F701DE01119601900D928A95E1F7098182
:103F10001A81C8010E94050DB8010E944D0B89CD80
:103F200080E00E94751BDD2061F290CFAA20A1F0F5
:103F30009091F6028D2D892B911003C00E94F80EEE
:103F4000C0CFE1E09E12FACF22FFBBCF981709F451
:103F5000B8CF8093F602B5CF911006C00E948D0CA9
:103F60008D2D0E94F10EADCFF1E09F1609F4A9CF7F
:103F70008D2D0E94F10E0E948D0CA3CFAA2031F04E
:103F800025E0291508F49DCF8D2DD8CF34E03915C3
:103F900008F497CFE5CF992019F3F9E38F122FC1D9
:103FA0002FEF37EE83E0215030408040E1F700C032
:103FB000000025C1812F86958695837061F0813040
:103FC00009F07FCFC8019370A11002C080E090E09B
:103FD0000E94EE0776CFC8019370A11002C080E066
:103FE00090E00E9413086DCF6A2D802F0E949D1AC9
:103FF00068CF812F837009F03FC0A11062CF402F9E
:10400000429546954770440F440F802F8F7090E083
:10401000042E02C0880F991F0A94E2F730E020E0D6
:1040200004FF09C02FE030E002C0220F331F4A9581
:10403000E2F720953095169516951370123099F089
:1040400078F44091F7025091F802113039F0822B48
:10405000932B842395230E94B10D33CF842B952B72
:10406000822B932BF8CF822B932B2091F702309148
:10407000F80282279327EFCF8695AA2011F0812F8F
:104080008170882309F41DCF402F429546954770D3
:10409000440F440F802F8F7090E0042E02C0880FD1
:1040A000991F0A94E2F730E020E004FF09C02FE0F6
:1040B00030E002C0220F331F4A95E2F72095309579
:1040C000169516951370123099F078F440915603B6
:1040D00050915703113039F0822B932B8423952371
:1040E0000E946E0DEECE842B952B822B932BF8CF56
:1040F000822B932B209156033091570382279327CD
:10410000EFCF1F70AA2029F0812F0E94A10D802FD0
:1041100015CF802F0E94F10E812F0E94730DD1CEFA
:10412000802F92EF891699F1981570F0E0EF8E16B6
:10413000D1F0F1EF8F1691F0AA2009F45BC0911035
:1041400072CE812F8F7127C023EF821639F134EFA1
:104150008312F2CF8091290482FD2EC0812F8F71AE
:10416000AA20D9F218C0AA2069F084E0891508F4C1
:10417000A8CE1F7181E090E002C0880F991F1A95A8
:10418000E2F7B8CF95E0991508F49BCEF2CF812FD6
:104190008F71A110C2CF0E94A10D93CE90E080E05C
:1041A000AA2009F49DCF1F7181E090E002C0880F22
:1041B000991F1A95E2F794CFAA2089F01F71812FD9
:1041C0000E94A10D8091290482FF07C0E8E01E9F94
:1041D000C001112483608093D302812FDCCF81E062
:1041E0000E94850DF1E0F91508F06BCE82E00E9487
:1041F000850D67CE992039F0893309F4D1CE802F0F
:104200000E94751B5ECE812F8F7187CF85E0DE0106
:10421000119601900D928A95E1F7F701228189812B
:104220009A8121110ACC0E94050D182F0ECC06315F
:10423000FCE71F0701F58091F5028A7A91E009F405
:1042400090E09093860269E2811165E386E692E050
:104250000E94B9070E949C0E0ECC06312CE7120773
:1042600051F58091860269E2811165E386E692E06C
:104270000E948F07EFCF03303CE7130709F454CDBA
:1042800050F401159CE7190709F441CD01301C4792
:1042900009F450CD5ACD0B35FCE71F0709F4A3CD27
:1042A0000C352CE7120709F447CD0A351C4709F0F5
:1042B0004CCD81E048CD8091F5028272F801E05248
:1042C000F847E531F10508F040CDE757F04D0C9483
:1042D000C92E1F93CF93DF938091A002807F09F0B6
:1042E0004BC080919D02882309F446C08091D20280
:1042F000C091A10240919B0250919C0260919E024C
:1043000070919F02D42FD52316E0C817A9F190E031
:1043100061157105A9F1DF3F99F1189FF001199F0F
:10432000F00D1124DF01AE55BD4F11962C91119760
:10433000251326C02C91241323C012962C9112977A
:1043400021111EC013962D913C91261B370B283C42
:104350003105B0F48091A0028F7080618093A0023B
:10436000E955FD4F80818F70806180838BE992E0F9
:104370000E94071D0E94BA0CDF91CF911F910895F2
:1043800001968770C2CFA1E1B0E0E9ECF1E20C94B4
:10439000782E8C0185E0F801DE011D9601900D92CA
:1043A0008A95E1F7F801E2808BE9882E82E0982E69
:1043B00040919E0250919F024115510509F430C170
:1043C00090919B0220919C02892F82238F3F09F4B8
:1043D00027C1D080C180A380B480F0909D02B50138
:1043E000641B750BFF2009F4E7C08091A002382FF1
:1043F000307F683C710508F0ABC0311178C0FE2CED
:104400002C1114C09D1112C0E11010C08F7080617A
:104410008093A002C4010E94071D8091A002F801B0
:1044200085838F2D6196ECE00C94942EA114B10439
:10443000C9F18D2D8C218F3FA9F181E08E2580FF60
:1044400005C04E2D6C2D8D2D0E949A0CA114B10427
:1044500059F18D2D8C218F3F39F181E08E25F82F78
:10446000F170BF2E80FF39C04E2D6C2D8D2D0E9416
:104470009A0CA82E811131C0DD86CE868D859E8551
:104480000E94F80C292F22952F70243078F49F7009
:104490002230A8F09923B9F0F8019581907F99F422
:1044A000FA2CBFCF80E0CBCF80E0D9CF2A5F2F702E
:1044B000223068F0C8010E94071DAB2CF1CF992370
:1044C00011F0882369F3805E883050F3F3CF803F8A
:1044D00038F3815F833070F7E3CFEE2009F4A1CF8A
:1044E0008091A00281608093A002F12C9ACF2C11C0
:1044F00005C09D1103C0EE2009F477C0C8010E94D9
:10450000B60D882309F1EE20F9F08091A0028032E7
:1045100070F020919B0230919C0238872F8319867E
:10452000BB86AA868C87CE0107960E94071D86E06F
:10453000F801ABE9B2E001900D928A95E1F70E9493
:104540006921FF24F3946DCFC8010E94071DF9CFA4
:1045500031110AC08BE992E00E94071D86E0F40148
:1045600011928A95E9F7C1CF2C110EC09D110CC094
:10457000E1100AC08583C8010E94071D86E0F4018E
:1045800011928A95E9F74DCFC8010E94B60D882394
:10459000D9F2EE20C9F28091A002803240F220913F
:1045A0009B0230919C023A8329831B82BD82AC829C
:1045B0008E83CE010196B9CF683C7105F8F6FE2CCA
:1045C000EE2011F22C111EC09D111CC08091A00282
:1045D00080FD0FC0982F907F61F08583903F31F070
:1045E000982F907F905F8F70892B8583C8010E94E0
:1045F000071D86E0F801ABE9B2E001900D928A95C3
:10460000E1F70FCFC8010E94B60D811190CF8091C4
:10461000A00281608093A002C8010E94071D01CF03
:10462000EE2009F491CFC8010E94B60DF82E882320
:1046300009F48ACF86E0F801ABE9B2E001900D926F
:104640008A95E1F780919B0290919C020E94F80C60
:104650000E946921E6CEA7E1B0E0E1E3F3E20C9429
:10466000812E4B8B5C8B6D8B7E8B8F8B61111092AF
:10467000F4021A8A198A85E0FE017396DE011D96FE
:1046800001900D928A95E1F786E0FE013D96DE01EC
:10469000179601900D928A95E1F7CE0107960E9438
:1046A000C321811112C086E0FE013796DE0111960A
:1046B00001900D928A95E1F78A859B85892B29F0D7
:1046C00088859F8189238F3F81F516E08091D202F2
:1046D0009091A102891317C06796E3E00C949D2E78
:1046E00096E0929FD001939FB00D1124AE55BD4F1F
:1046F000FE01319601900D929A95E1F78093A10207
:104700000E94BA0CE2CF819FC00111248E559D4FAB
:104710000E94C321882301F38091D20290E0019688
:10472000877099278093D202D1CF2091A10230E0E7
:10473000C9010196877099274091D202481719063E
:1047400079F60E9463171092A1021092D20286E0BD
:10475000EBE9F2E0DF011D928A95E9F7B6CFACE014
:10476000B0E0E5EBF3E20C94772E8E010F5F1F4F64
:1047700088E0D8011D928A95E9F785E3C82E81E08B
:10478000D82EF12CE12CAA24A394B12C25E3822E5F
:1047900021E0922EF60181916F018F3F09F442C012
:1047A000F894E82FE295EF70F0E021A18F70A50159
:1047B00002C0440F551F8A95E2F7CA01922F982B29
:1047C00091A392A18095892382A3789400C0E0E30D
:1047D000F1E0712C31E021912F3F09F46BC0A22F41
:1047E000A295AF70B0E090968C9190E02F7002C0CF
:1047F000959587952A95E2F780FD5CC0832F782AEE
:10480000330F8E169F0639F7F601319780818F3F5F
:1048100011F00E94510A50EA5A95F1F7F801EE0D95
:10482000FF1D70828FEFE81AF80AA4E0EA16F1047F
:1048300009F0B0CF48E050E0B80183E393E00E9474
:10484000D82E009741F028E0F801A3E3B3E00190EF
:104850000D922A95E1F700913C03892B69F181E0E3
:104860008093FD020E9430179093FC028093FB021C
:104870008091FB029091FC020E942117059700F1A4
:1048800010E0035C1C4F44E050E063E373E0C801B8
:104890000E94D82EB12C892B51F084E0E3E3F3E0A1
:1048A000D80101900D928A95E1F7BB24B394109240
:1048B000FD0207C080E0A3CF8091FD028111D8CF17
:1048C000B12C0E943610A82EE0913C03882309F4F5
:1048D00089C019861A861B861C860E2F10E0035C81
:1048E0001C4F80912C038A3008F046C041E955E105
:1048F000BE01675F7F4FC8010E940310882309F43F
:1049000060C04EEA5CE1BE01675F7F4FC8010E9454
:104910000310882309F455C046E954E1BE01675FDE
:104920007F4FC8010E940310882309F44AC044E362
:1049300054E1BE01675F7F4FC8010E9403108823C6
:1049400009F43FC010922C0380913B0390E044E0B7
:1049500050E0BE01675F7F4F835C9C4F0E94D82E62
:1049600021E020930403892BF1F4A12C8A2D8B29BB
:104970002C96EDE00C94932E8091FE029091FF0214
:104980000E942117843F914008F0B0CF809104032A
:10499000882359F3FE01399684E0DF011D928A9540
:1049A000E9F710920403E0913B03F0E0E35CFC4F75
:1049B00089859A85AB85BC8580839183A283B383E7
:1049C000D5CF80912C038F3F31F08F5F80932C03E4
:1049D0008A3008F4B9CF0E9430179093FF02809379
:1049E000FE02D4CFF0E0E35CFC4F84E0A7E1B3E04B
:1049F00001900D928A95E1F764E070E087E193E021
:104A00000E943808809316034091530350E0609150
:104A1000520370E0625B7C4FCE0109960E94E52E46
:104A2000898580931C0361E070E0CE0109960E94A5
:104A3000380880931B03C0901D03D0901E03E090A4
:104A40001F03F09020038091000390910103A09137
:104A50000203B0910303C816D906EA06FB06D1F09B
:104A6000C0920003D0920103E0920203F09203038C
:104A70000E94361081110EC00E948307C61AD70A01
:104A8000E80AF90AC0922D03D0922E03E0922F0378
:104A9000F092300386E0E1E2F3E0ADE5B4E00190AE
:104AA0000D928A95E1F710912703112349F0809127
:104AB0009203811105C00E949E1080E00E94CD08E3
:104AC0001093920353CFA5E0B0E0E9E6F5E20C9431
:104AD000802E0E9430178C018091F9029091FA0289
:104AE00080179107A1F08FEF89838A831B820E9430
:104AF00030178160782F9D838C8349815A816B8127
:104B00008D810E942B231093FA020093F9022596BF
:104B1000E4E00C949C2E1F921FB61F9211248F93D9
:104B20009F93AF93BF9380912304811113C0809111
:104B3000240490912504A0912604B0912704419665
:104B4000A11DB11D8093240490932504A0932604F5
:104B5000B0932704BF91AF919F918F911F901FBE7B
:104B60001F901895CDB7DEB760970FB6F894DEBFEB
:104B70000FBECDBF85B7806885BF85B7806885BF0C
:104B800084B7877F84BF0FB6F894A89580916000A2
:104B9000886180936000109260000FBE80E890E012
:104BA0000FB6F89480936100909361000FBE8FE47C
:104BB0009AE090936502809364020E9415060E9419
:104BC000B6068091E20084608093E2007894809140
:104BD0004F048823A1F01091E9001F709091EC0020
:104BE000892F817090FD80E8182B1092E900809148
:104BF000E80083FD0E9492171F701093E90082E085
:104C000084BD93E095BD9AEF97BD80936E0010929E
:104C10002D0310922E0310922F03109230030E9446
:104C20003610809339010E94361081110E94FC2CAD
:104C30009091390181E0982790935203282F291BE6
:104C4000209332039091390180935303909139015D
:104C50008093310380913901811106C086E38093EE
:104C6000430182E38093420120914301E22FE295C8
:104C7000EF70F0E061A12F7081E090E0AC0101C025
:104C8000440F2A95EAF7342F3095362331A322A119
:104C9000242B22A320914201E22FE295EF70F0E055
:104CA00031A12F7001C0880F2A95EAF7982F9095AF
:104CB000932391A392A1892B82A38FE891E001977E
:104CC000F1F700C000001091530364E573E043E482
:104CD00051E082E4E82E81E0F82EFB0128C0DA01E1
:104CE0002D91AD01822F82958F7090E0DC0190961E
:104CF0008C9190E02F7002C0959587952A95E2F7E8
:104D00008170D7019D917D01292F22952F7030E070
:104D1000D90190962C9130E09F7002C0359527956F
:104D20009A95E2F790E020FD92E0892B81938E2FF7
:104D3000861B8117A0F280913901811124C085EF73
:104D40008093350187EF8093360186EF809337019A
:104D500086EC8093380185E0E7E5F1E0DE0111960D
:104D600001900D928A95E1F78981809330018A81C3
:104D7000809331018B81809332018C818093330148
:104D80008D81809334018091390194E0811190E00C
:104D900090933C0384E0891B80933B0305E311E07F
:104DA00089E3E82E81E0F82EF80181918F018F3F91
:104DB00011F00E94510AE016F106B1F700E311E08C
:104DC000B5E3EB2EB1E0FB2ED8018D918D018F3F25
:104DD00011F00E94510AE016F106B1F788E0EDE308
:104DE000F3E0DF01282F1D922A95E9F7E3E3F3E0D2
:104DF000DF011D928A95E9F790E080E00E94062F7E
:104E0000873E9E4F11F00E94C51582E090E00E94FF
:104E1000FE2E8093450384E090E00E94062F90933D
:104E20002904809328040E94AF23EFEFF6E721E0E6
:104E3000E150F0402040E1F700C000000E94AF23A5
:104E400080913D0380FF08C06FEF7FEF90E080E02E
:104E50000E943A2F0E94720783E090E00E94FE2E8B
:104E600090E00E94B10D90E080E00E94062F873E06
:104E70009E4F21F00E94C5150E94021481E080938C
:104E80005C0446E050E06CE170E08DE594E00E9447
:104E9000EE2E10925C0480915D048C7F11F40E94D0
:104EA00002140E943610882309F4AFC082E0809378
:104EB000780380E8809363040E94B62B6DE070E075
:104EC0008FEE92E00E94020F892BE9F58091780322
:104ED00063E070E081FD9BC08CEE92E00E94020FC7
:104EE000892B89F56DE070E08CED92E00E94020F55
:104EF000892B49F50E948307605A75418F4F9F4F58
:104F000060931704709318048093190490931A0403
:104F1000E6E6F4E080E092E0DF019C011D92215082
:104F20003040E1F7F0936D06E0936C068FEF9FEF52
:104F3000909365048093640481E080931C048093C3
:104F40001B04109279030E943610811102C00E9446
:104F5000FF2C8AE391E09093200480931F04FF24A8
:104F6000F39480914F0400E112E1853009F49AC076
:104F70000E94AF2306E413E0ADE3CA2EA3E0DA2ECD
:104F8000D601F80191918D9123E0EE34F20709F4F6
:104F900095C09817B9F30E943610782EE12CD601EF
:104FA000BD906D01F80181908F018B1429F1A12C26
:104FB000992493948B24882D8921B1F07720A1F036
:104FC000AA86EB8691E08B2D892109F490E09C87DD
:104FD0000E9430178160782F9E878D874A855B8578
:104FE0006C858E850E942B23A394990CF5E0AF125B
:104FF000E2CFF8013197B082E39428E0E212CFCFFC
:105000000E948307DD24D3945EC080E050CF89EEF8
:1050100092E064CF80914F04843009F434C00E9440
:105020008D1380919203811105C00E949E1080E033
:105030000E94CD0831E0309392030E942C0F109211
:10504000230488E190E0A0E40FB6F894A89580933B
:1050500060000FBEA093600083B7817F846083BF30
:1050600083B7816083BF7894889583B78E7F83BF31
:105070000FB6F894A89580916000886180936000D5
:10508000109260000FBE80914E04882359F00E9458
:10509000AF23EDE3F3E08191811148C3B3E0E53440
:1050A000FB07C9F780914F04853009F4B3CF0E9404
:1050B00063170E945910109292035ACF98136BCF26
:1050C0000E946325D12C0E9436100E948D13912CD2
:1050D000E12CF4E0AF2EB12C80915303981608F424
:1050E0005EC0E1100E948A0C80911C04882309F4A0
:1050F00006C180917A0390917B030E942117C29789
:1051000008F4DAC00E94301790937B0380937A03EF
:1051100086E694E090936D0680936C060E943610AC
:10512000882309F4EFC12091560330915703832F50
:105130009927009709F4B2C09C0188E0A90174E0A6
:10514000569547957A95E1F74115510511F08C5F19
:105150009A01A901569547955695479541155105D0
:1051600011F08E5F9A0136952795232B09F08F5FFA
:10517000813009F4A6C1882309F492C0823009F471
:10518000ABC1833009F4B3C185E193E00E948E0E78
:105190008AE093E00E948E0E8CEF92E08BC0092D86
:1051A00010E0F801ED5BFE4F8081E82FE295EF7093
:1051B000F0E0E0A1F0E08F7002C0F595E7958A95E8
:1051C000E2F7E170D801AE5BBE4F2C91A22FA29501
:1051D000AF70B0E090968C9190E02F7002C09595E2
:1051E00087952A95E2F780FD51C080E08E2BD8018B
:1051F000AC5ABC4FEC919E2F9370891709F444C0B0
:10520000EE0FEE0FE82BEC93C0905203C90CEF7039
:10521000F0E0E956FE4F005B1C4F8081D8019C9165
:10522000890F8C93812C843084F0EC2DF0E0E25BCC
:10523000FC4F80818F5F80830E943610882E8823E8
:1052400039F160E08C2D0E94961CF80180818D3F21
:1052500084F4EC2DF0E0E25BFC4F80818150808390
:105260000E943610882E8823B1F061E08C2D0E94B8
:10527000961CD8018C91082E000C990BB5010E9448
:10528000B52EF8018083E828939426CF82E0AECF34
:1052900088248394DACF88248394EBCF80E04ECFA8
:1052A00080E993E00E948E0E8DE893E00E948E0EBE
:1052B00080E893E00E948E0E8091640490916504D2
:1052C000892B21F080911C0481112BC180911B043A
:1052D0008823A9F00E9483070091170410911804F5
:1052E0002091190430911A04601B710B820B930BEF
:1052F0006F3F7F4F8F4F9F4710F40E942C0FD110AC
:1053000001C0E1100E94470F86E0E4E8F3E0DE010F
:10531000119601900D928A95E1F7109286031092F2
:10532000870310928803109289038B819C81892BBB
:1053300009F44AC080918203909183030E9421174F
:105340009C0190917D03992309F40BC2253131050D
:10535000D8F19F3F19F09F5F90937D031B8111232C
:1053600059F00E942F0A9FEF11160CF491E0899FCB
:10537000802D1124809386031C81112359F00E94F3
:105380002F0A9FEF11160CF491E0899F802D1124B4
:1053900080938703309186033323B1F020918703F4
:1053A000222391F045EB3403C0011124992309F421
:1053B000B1C19093860345EB24039001112433235C
:1053C00009F4ABC1309387038D819E81892B09F449
:1053D0004AC080918003909181030E9421179C0113
:1053E00090917E03992309F4B7C121353105D8F195
:1053F0009F3F19F09F5F90937E031D81112359F009
:105400000E940D0A9FEF11160CF491E0899F802DE8
:105410001124809388031E81112359F00E940D0AE4
:105420009FEF11160CF491E0899F802D1124809339
:105430008903309188033323B1F02091890322231B
:1054400091F045EB3403C0011124992309F468C19C
:105450009093880345EB240390011124332309F42E
:1054600062C13093890346E050E0BE016F5F7F4F19
:1054700084E893E00E94D82E892B61F48091860302
:1054800090918703892B90918803892B90918903B0
:10549000892B11F00E943C1786E0FE013196A4E8AA
:1054A000B3E001900D928A95E1F70E945910909116
:1054B0007C03891709F455CD80937C030E948307F0
:1054C00050CD85E793E00E948E0E80E793E00E9426
:1054D0008E0E82E693E0EECE87E593E00E948E0E7C
:1054E00080E593E00E948E0E82E493E0E3CE87E3B2
:1054F00093E00E948E0E8EE293E00E948E0E8FE16A
:1055000093E0D8CE8BE993E00E948E0E80911C042C
:10551000882309F4D1CE8091640490916504892B8D
:1055200009F1809179038111D1CE0E94470F20911A
:105530006404309165042115310509F4C7CE80E07B
:1055400041E050E0082F10E02A01082E02C0440C70
:10555000551C0A94E2F7B20162237323672B19F5F5
:105560008F5FF0CF809179038111B0CE198287E2ED
:105570008A831B821C821D8287E08E831F828FEFAD
:1055800088878FE2898724E630E049E050E0BE0159
:105590006F5F7F4F88E70E94562C892B09F08CCED5
:1055A000F092790389CE9091780390FF9AC0880F8A
:1055B000880F880F8093460110924901895F80937C
:1055C000470183E080934A0124E630E047E050E061
:1055D00064E471E088E70E94562C892B09F076CEAE
:1055E000A80125E0440F551F2A95E1F78091780323
:1055F00080FF89C0E8E5F3E080E2DF011D928A9533
:10560000E9F7EBEAF1E0F88BEF8707EA11E097E0C2
:10561000992E88248394AF85B8892D91B88BAF8754
:10562000F80121908F01240E352E311CC1018A59B9
:105630009B4F1C01E22FF0E0E85AFC4F30E020E0E5
:10564000692C621AC82C022E01C0CC0C0A94EAF70D
:10565000510190E0D5018D915D018C21662D691B72
:105660006770762E062E000C770BB82F01C0BB0F8B
:105670007A94EAF77B2E71956195710967707727A7
:1056800001C086956A95EAF7782A8081782A708227
:105690009F5F9830F9F62F5F3F4F319628303105E4
:1056A00079F6EF85F889EF5AF14009F0B4CF04E6B6
:1056B00010E020E230E048E553E060E488E70E9433
:1056C000772C892B09F002CE409450948091640489
:1056D00090916504482259225092650440926404D6
:1056E000F5CD8295880F8076809346019801369596
:1056F00027953695279520934901815E8093470130
:1057000010924A0161CF4A595B4F04E610E020E253
:1057100030E0D3CFF09286034ECEF092870354CE82
:10572000F092880397CEF09289039DCE09BD19BDF2
:1057300009B400FEFDCF8091D8008F7D8093D80002
:105740008091E00082608093E0008091E00081FD24
:10575000FCCF0E946317A6CC2B30310508F04ACE4F
:1057600082CE2B30310508F0F6CD2ECE1092B90046
:105770008CE08093B8000895B0E0A0E0E2ECFBE29A
:105780000C94792EB82EEB010E9430176C01EE2498
:10579000E394F12CC431D10560F025E0E22EF12C28
:1057A000CF3FDC0731F0CE0164E170E00E945E2E55
:1057B0007B0184EAA82E94E8992E1092BC00A09256
:1057C000BC000E9430178C018091BC0087FF0DC087
:1057D0008091B900887F8830F9F08091B900887F86
:1057E0008031D1F00FEF1FEF08C0C8010E942117D0
:1057F000E816F90648F70EEF1FEFCF3FDC07E9F296
:10580000C6010E942117C817D907B8F6C801CDB73D
:10581000DEB7EBE00C94952EB092BB009092BC00EA
:105820000E9430178C018091BC0087FF0AC08091D4
:10583000B900887F883111F08034A1F610E000E0D3
:10584000E5CFC8010E942117E816F90660F7D3CF0B
:105850000F931F93CF93DF93EB018093BB0084E8FA
:105860008093BC000E9430178C018091BC0087FFA0
:1058700011C02091B900287F81E090E0283211F416
:1058800090E080E0919581959109DF91CF911F91F2
:105890000F910895CF3FDC0741F3C8010E94211703
:1058A000C817D90710F78EEF9FEFEFCFB0E0A0E059
:1058B000ECE5FCE20C947C2E6B018A017901B901C4
:1058C0000E94BC2BE6010C0D1D1DC017D10711F065
:1058D00097FF08C024E92093BC00CDB7DEB7E8E00D
:1058E0000C94982EB70189910E94282CEECFB0E03D
:1058F000A0E0EDE7FCE20C947C2EC62F6A01790152
:10590000B8010E94BC2B97FD0CC0B8018C2F0E94DF
:10591000282CE601EC0CFD1CCE15DF0511F097FFDD
:1059200008C024E92093BC00CDB7DEB7E8E00C94B2
:10593000982EB80189910E94282CEECF84E980939B
:10594000BC0008958EE14B9B02C08150E1F74B9B58
:10595000FECF08955B9880E28A95F1F75B9A0895EF
:10596000FC013BE03A95F1F798E020E080E031E07F
:1059700040E14A95F1F7880F4B9B02C081602327D5
:1059800042E04A95F1F7000040E14A95F1F7915065
:1059900079F790E19A95F1F799B132E03A95F1F7FC
:1059A000000040E14A95F1F793FB992790F992277F
:1059B0002081920F90830895A1E0B0E0E2EEFCE236
:1059C0000C947E2E19828C017C01E60EF11C0E15C2
:1059D0001F0541F481E09981911180E02196E6E074
:1059E0000C949A2E0E94A22CCE0101960E94B02CFB
:1059F000F80181938F01EBCF539A5B9A08955398E6
:105A00005B9AEB9AE9E6F0E080818F7380830895DA
:105A10006150770B91E001C0990F6A95EAF720E099
:105A200031E0911108C0222391F05B9A80E28A95BF
:105A3000F1F75B980895492F482339F05B9A2327A3
:105A400040E24A95F1F79695ECCF5B98F9CF5B98D9
:105A5000EDCFFF920F931F93CF93DF93EC018C0157
:105A6000060F111DC017D10729F4CDB7DEB7E5E049
:105A70000C949B2EF9900E94AA2C68E08F2D0E9416
:105A8000082DF0CF1F920F920FB60F9211240F9393
:105A90001F932F933F934F935F936F937F938F93B6
:105AA0009F93AF93BF93EF93FF93CF93DF930F92A7
:105AB000CDB7DEB719820E94A22CCE0101960E94BA
:105AC000B02C082F069506950695282F229525704F
:105AD000902F9570290F922F937026952695920FEF
